:100000000C94DC010C9400090C94CF080C949E080D
:100010000C946D080C943C080C940B080C94DA07B3
:100020000C94A9070C9406020C9406020C94060288
:100030000C9406020C9406020C9406020C94060220
:100040000C9406020C9406020C9406020C94060210
:100050000C9406020C9406020C9406020C943D09C2
:100060000C9406020C948A130C94B2120C9406029F
:100070000C9406020C9406020C9406020C940602E0
:100080000C9406020C9406020C9406020C940602D0
:100090000C9457130C9473120C9406020C940602E1
:1000A0000C9406020C9406020C9406020C940602B0
:1000B0000C9406020C9406020C9406020C940602A0
:1000C0000C9406020C9406020C9406020C94241361
:1000D0000C9434120C9406020C94F1120C94F51149
:1000E0000C9406021F072207150719075907260750
:1000F0002A073007340738073E07420746075907E3
:100100004C0750075407F30EFB0ED30EDB0EE30E25
:10011000EB0E030F0B0F4552524F52204E4F20440F
:100120004154412052454144590020202020454C53
:10013000524F2F494D50554C533A003B57494E446E
:100140003D003B4241543D003B48554D3D003B5432
:10015000454D503D004944583D0020202020576522
:1001600061746865723A002044494D3D0020554E47
:1001700049543D002053544154453D44494D0020CD
:1001800047524F55503D004944583D002020202003
:100190004E65776B616B7544696D3A003B4348412E
:1001A0004E3D003B4241543D003B48554D3D003BD8
:1001B00054454D503D004944583D002020202054D6
:1001C000656D7048756D3A003B4348414E3D003BBC
:1001D0004241543D003B48554D3D003B54454D5038
:1001E0003D004944583D002020202054656D704852
:1001F000756D3A002020202041544972656D6F745E
:10020000653A00202053504143454C454E465241EB
:100210004D453A00202044415441313333313A00B6
:10022000204672656572616D3A0020646174616395
:100230006F756E74004C6F61644C6F6F70733A0031
:100240002B52465452583A56455253494F4E3A0053
:100250003D524543563A626974733A6D61726B65FB
:10026000723A706572696F643A73697A65496E5063
:100270006572696F647323003A4E414D453A5246A8
:100280005343414E4E45523323003A4E414D453A79
:1002900052465343414E4E45523223003A4E414D51
:1002A000453A52465343414E4E45523123000000D9
:1002B0002100240027002A002D0030003300010116
:1002C0000000040107010A010000220025002800A7
:1002D0002B002E003100340002010000050108014E
:1002E0000B010505050507050808080802020202BA
:1002F0000A0A0808040404040101010101010101C2
:100300000303030303030303040707070C0C0C0C8C
:100310000C0C0C0C02020202060606060606060675
:100320000B0B0B0B0B0B0B0B010210202008081002
:100330002040102040800201020108040201010255
:10034000040810204080804020100804020180042E
:100350000201804020100804020108040201010289
:100360000408102040800102040810204080000092
:10037000090A02080B0C0D07060304010000000027
:10038000000000000000000000000000000000006D
:100390000000000000000000000011100F0000002D
:1003A000000000000000000000000000000000004D
:1003B00000000000E420B62011241FBECFEFD1E2E0
:1003C000DEBFCDBF16E0A0E0B2E0ECE1F1E500E079
:1003D0000BBF02C007900D92A036B107D9F726E2F5
:1003E000A0E6B6E001C01D92AE31B207E1F711E020
:1003F000CBEDD1E004C02197FE010E946428CA3DE4
:10040000D107C9F70E94BD130C9411230C9400006E
:10041000CF92DF92EF92FF920F931F93CF93DF93D0
:100420006C01EB017B01E40EF51E00E010E0CE153F
:10043000DF0561F06991D601ED91FC910190F081A9
:10044000E02DC6010995080F191FF1CFC801DF91F2
:10045000CF911F910F91FF90EF90DF90CF90089573
:100460003FB7F89480918A2290918B22A0918C22A0
:10047000B0918D2226B5A89B05C02F3F19F001969B
:10048000A11DB11D3FBFBA2FA92F982F8827820F1A
:10049000911DA11DB11DBC01CD0142E0660F771F6A
:1004A000881F991F4A95D1F70895BF92CF92DF9286
:1004B000EF92FF920F931F93CF93DF93EC010E9473
:1004C0003002DE01AA0FBB1FAA0FBB1FFD01EA5BB2
:1004D000FA4D0081118122813381601771078207F3
:1004E000930740F46083718382839383C959DA4D03
:1004F0001882A5C0AB01401B510BFE01EC59FA4D0F
:100500004A35510518F481E0808399C0208121117A
:1005100036C06A01E12CF12CFE01E959FA4D108137
:10052000112349F141310EE0500758F11082DE01EC
:10053000AA0FBB1FAE5ABA4D8D919C9111972CEC0E
:100540002C9FF0012D9FF00D1124E80FF91FEE0FE5
:10055000FF1FEE0FFF1FEF59F94F10821182128219
:1005600013820196883C910518F48D939C9367C083
:100570001D921C9264C041322EE4520710F010828A
:100580005EC09E01220F331F493E534078F140E286
:10059000C4164EE4D406E104F10441F1111126C061
:1005A00041E0408389010E5A1A4DF8014081518182
:1005B000ECECBE2EBC9EF001BD9EF00D1124E40FAC
:1005C000F51FEE0FFF1FEE0FFF1FEF59F94F1082BF
:1005D0001182128213824F5F5F4FF801483C510530
:1005E00018F45183408302C0118210822E5A3A4D72
:1005F000F901408151811CEC1C9FF0011D9FF00D01
:100600001124E40FF51FEE0FFF1FEE0FFF1FEF5930
:10061000F94FC082D182E282F3824F5F5F4FF901CE
:10062000483C510518F45183408302C01182108266
:10063000AA5BBA4D6D937D938D939C931397DF9135
:10064000CF911F910F91FF90EF90DF90CF90BF90CF
:10065000089580915A2590915B25019721F481E0BE
:1006600090E00C9455020895809158259091592559
:10067000019721F480E090E00C9455020895CF9307
:10068000DF93EC0188819981009711F00E940F247B
:10069000198218821D821C821B821A82DF91CF91DF
:1006A00008950F931F93CF93DF93EC018881998175
:1006B000009729F02A813B812617370788F48B01A0
:1006C0006F5F7F4F0E94A724009761F09983888312
:1006D0001B830A832C813D81232B11F4FC011082A2
:1006E00081E001C080E0DF91CF911F910F910895CB
:1006F000EF92FF920F931F93CF93DF93FC0124811E
:1007000035816115710511F480E019C0411551055D
:10071000A9F07B01EC018A01020F131FB8010E94AE
:100720005103882389F3288139818C819D81B70108
:10073000820F931F0E94AA251D830C8381E0DF9105
:10074000CF911F910F91FF90EF900895EF92FF923C
:100750000F931F93CF93DF93EC017B018A01BA01C2
:100760000E945103811104C0CE010E943F0307C0C3
:100770001D830C83B701888199810E94AA25CE012F
:10078000DF91CF911F910F91FF90EF9008958EEB25
:1007900094E00E94130F8AEC94E00E94860E8CE98C
:1007A00092E00E9420108FEC94E00E94860E81ED72
:1007B00094E00E94860E8AE892E00E9420108FEC5E
:1007C00094E00E94860E86ED94E00E94860E88E7F3
:1007D00092E00E94201080E592E00C9420108BEDB6
:1007E00094E00C94130F80E492E00E94660E80EE79
:1007F00094E00E94860E80E392E00C94130FCF9356
:10080000DF930E94C90D89EE94E00E94130F88EFD8
:1008100094E00E94130FC8E7D5E285E2C63FD807EF
:1008200069F0CE010E94880E87E095E00E94860E56
:10083000CE010B960E94B40E6296EFCFDF91CF915E
:100840000C94C90DAF92BF92CF92DF92EF92FF92BC
:100850000F931F93CF93DF93FC0124813581FB011C
:10086000448155818901041B150B4115510551F136
:100870002115310539F12417350720F10217130727
:1008800018F08901015011097B01FC01A080B180A1
:10089000C501DFEFCFEF6501C00ED11EC816D90626
:1008A000A0F0F701608171810E94BC25009769F07A
:1008B0009C012A193B090217130710F0D22FC32FEE
:1008C0000196ECCF8FEF9FEF02C08D2F9C2FDF9111
:1008D000CF911F910F91FF90EF90DF90CF90BF903D
:1008E000AF900895CF93DF93FC0124813581232BB2
:1008F00071F0FB01DC01CD91DC9160817181CE0151
:100900000E94BC25009719F08C1B9D0B02C08FEF35
:100910009FEFDF91CF910895FC012481358162170B
:10092000730748F480819181009729F0FC01E60F5C
:10093000F71F8081089580E00895FC0124813581AE
:10094000232B31F421E061157105A1F0FB0108C0F2
:10095000FC01808191816115710531F421E0FC0178
:100960008081882339F005C00E94A12521E0892BD0
:1009700009F020E0822F0895CF93DF93EC0166E425
:1009800076E00E949D04882321F010925925109250
:10099000582564E475E0CE010E949D04882321F06F
:1009A00010925B2510925A256BE575E0CE010E94EE
:1009B0009D04882321F010925D2510925C256EE441
:1009C00075E0CE010E949D04882321F010925D25E0
:1009D00010925C256BE075E0CE010E949D04882397
:1009E00061F0109259251092582510925B251092B3
:1009F0005A2510925D2510925C25DF91CF910895C4
:100A0000CF93DF93EC0166E476E00E949D04882397
:100A100031F081E090E0909359258093582564E46B
:100A200075E0CE010E949D04882331F081E090E0C2
:100A300090935B2580935A256BE575E0CE010E946B
:100A40009D04882331F081E090E090935D258093B0
:100A50005C256EE475E0CE010E949D04882331F090
:100A600081E090E090935F2580935E256BE075E0D8
:100A7000CE010E949D04882371F081E090E0909364
:100A800059258093582590935B2580935A25909300
:100A90005D2580935C25DF91CF910895EF92FF92C1
:100AA0000F931F93CF93DF93CDB7DEB72C970FB67D
:100AB000F894DEBF0FBECDBF7C01CB01BA012AE0A6
:100AC0008E010F5F1F4FA8010E941F23F8010190A4
:100AD0000020E9F73197AF01401B510BB801C70166
:100AE0000E947803811103C0C7010E943F03C70120
:100AF0002C960FB6F894DEBF0FBECDBFDF91CF911D
:100B00001F910F91FF90EF900895CF93DF93EC0129
:100B10006115710561F0FB0101900020E9F7319743
:100B2000AF01461B570B0E947803811103C0CE0111
:100B30000E943F03CE01DF91CF910895CF93DF93C1
:100B4000EC01FB0144815581608171810E94780331
:100B5000811103C0CE010E943F03CE01DF91CF91EE
:100B60000895EF92FF920F931F93CF93DF93CDB72A
:100B7000DEB727970FB6F894DEBF0FBECDBF7C015E
:100B8000CB014AE08E010F5F1F4FB8010E94142372
:100B9000F80101900020E9F73197AF01401B510B9C
:100BA000B801C7010E94780327960FB6F894DEBFFC
:100BB0000FBECDBFDF91CF911F910F91FF90EF90AE
:100BC0000895CF93DF93EC010E94B105811103C01A
:100BD000CE010E943F03CE01DF91CF910895CF93C4
:100BE000DF9300D0CDB7DEB769831A8241E050E0D1
:100BF000BE016F5F7F4F0E9478030F900F90DF91CF
:100C0000CF9108956115710551F0FB01019000200D
:100C1000E9F73197AF01461B570B0C94780380E03E
:100C20000895CF93DF93EC016115710559F0FB0135
:100C300001900020E9F73197AF01461B570B0E9446
:100C4000A60302C00E943F03CE01DF91CF91089519
:100C5000CF93DF93EC01FB018617970761F060816A
:100C600071816115710529F0448155810E94A603A7
:100C700002C00E943F03CE01DF91CF9108950F93F0
:100C80001F93CF93DF938C01EB01FC018081918155
:100C9000009799F0428153812C813D81421753077F
:100CA00050F0688179810E94AA258C819D81F8018C
:100CB0009583848313C00E940F2488819981F80151
:100CC000918380838A819B81938382838C819D81A0
:100CD00095838483198218821B821A821D821C824A
:100CE000DF91CF911F910F910895CF93DF93EC0186
:100CF0008617970711F00E943F06CE01DF91CF9132
:100D000008950F931F93CF93DF93EC018B010E9403
:100D10007506F8018781908598878F8381859285F4
:100D20009A87898783859485A585B6858B879C87D7
:100D3000AD87BE87B801615F7F4FCE010F960E94DD
:100D40007506B8016A5E7F4FCE0146960E94750611
:100D5000B801635E7F4FCE014D960E947506F80183
:100D600084A195A1A6A1B7A18CA39DA3AEA3BFA367
:100D7000CE01DF91CF911F910F910895FC018081E9
:100D800091810C940F24CF93DF93EC014D960E9438
:100D9000BE06CE0146960E94BE06CE010F960E9468
:100DA000BE06CE01DF91CF910C94BE06FC011182EC
:100DB0001082138212821582148216820C942806E5
:100DC000FC01118210821382128215821482168213
:100DD0006115710551F0FB0101900020E9F7319791
:100DE000AF01461B570B0C94A6030895362F90E0D5
:100DF000FC01E259FC4F4491FC01E85DFC4F249159
:100E0000FC01EE51FD4F8491882309F465C0442311
:100E100009F44FC050E0FA013197E131F10508F0D3
:100E200048C0EE58FF4F0C946428909180009F7743
:100E300003C0909180009F7D909380003AC094B54C
:100E40009F7702C094B59F7D94BD33C09091B00050
:100E50009F7703C09091B0009F7D9093B00029C010
:100E6000909190009F7707C0909190009F7D03C064
:100E700090919000977F909390001BC09091A0005C
:100E80009F7707C09091A0009F7D03C09091A00024
:100E9000977F9093A0000DC0909120019F7707C08D
:100EA000909120019F7D03C090912001977F9093A6
:100EB0002001E82FF0E0EE0FFF1FE853FD4FA59152
:100EC000B4918FB7F894EC91311103C020952E2383
:100ED00001C02E2B2C938FBF0895CF93DF9390E00A
:100EE000FC01E85DFC4F2491FC01EE51FD4F849123
:100EF000882361F190E0880F991FFC01E255FD4FB6
:100F0000C591D491FC01E853FD4FA591B4916111B5
:100F100009C09FB7F8948881209582238883EC913B
:100F20002E230BC0623061F49FB7F8943881822F72
:100F3000809583238883EC912E2B2C939FBF06C032
:100F40008FB7F894E8812E2B28838FBFDF91CF9144
:100F500008951F920F920FB60F9211240BB60F92A5
:100F60002F933F934F935F936F937F938F939F93B1
:100F7000AF93BF93EF93FF9380919C2290919D221A
:100F8000892B29F0E0919C22F0919D220995FF91F7
:100F9000EF91BF91AF919F918F917F916F915F91F1
:100FA0004F913F912F910F900BBE0F900FBE0F905E
:100FB0001F9018951F920F920FB60F9211240BB627
:100FC0000F922F933F934F935F936F937F938F93E2
:100FD0009F93AF93BF93EF93FF9380919A22909149
:100FE0009B22892B29F0E0919A22F0919B2209956E
:100FF000FF91EF91BF91AF919F918F917F916F91F1
:101000005F914F913F912F910F900BBE0F900FBEAC
:101010000F901F9018951F920F920FB60F921124E8
:101020000BB60F922F933F934F935F936F937F93E2
:101030008F939F93AF93BF93EF93FF9380919022F1
:1010400090919122892B29F0E0919022F0919122A8
:101050000995FF91EF91BF91AF919F918F917F91F2
:101060006F915F914F913F912F910F900BBE0F9019
:101070000FBE0F901F9018951F920F920FB60F92F0
:1010800011240BB60F922F933F934F935F936F935F
:101090007F938F939F93AF93BF93EF93FF93809131
:1010A0008E2290918F22892B29F0E0918E22F0914F
:1010B0008F220995FF91EF91BF91AF919F918F91F1
:1010C0007F916F915F914F913F912F910F900BBE48
:1010D0000F900FBE0F901F9018951F920F920FB692
:1010E0000F9211240BB60F922F933F934F935F9360
:1010F0006F937F938F939F93AF93BF93EF93FF93E0
:101100008091982290919922892B29F0E091982240
:10111000F09199220995FF91EF91BF91AF919F9125
:101120008F917F916F915F914F913F912F910F9090
:101130000BBE0F900FBE0F901F9018951F920F922D
:101140000FB60F9211240BB60F922F933F934F932C
:101150005F936F937F938F939F93AF93BF93EF931F
:10116000FF938091962290919722892B29F0E0910C
:101170009622F09197220995FF91EF91BF91AF913F
:101180009F918F917F916F915F914F913F912F919F
:101190000F900BBE0F900FBE0F901F9018951F92CF
:1011A0000F920FB60F9211240BB60F922F933F930D
:1011B0004F935F936F937F938F939F93AF93BF935F
:1011C000EF93FF938091942290919522892B29F09F
:1011D000E0919422F09195220995FF91EF91BF91B2
:1011E000AF919F918F917F916F915F914F913F91BF
:1011F0002F910F900BBE0F900FBE0F901F90189560
:101200001F920F920FB60F9211240BB60F922F93CD
:101210003F934F935F936F937F938F939F93AF937E
:10122000BF93EF93FF938091922290919322892B09
:1012300029F0E0919222F09193220995FF91EF918C
:10124000BF91AF919F918F917F916F915F914F91DE
:101250003F912F910F900BBE0F900FBE0F901F90DC
:1012600018952FB7F894609186227091872280910B
:101270008822909189222FBF08951F920F920FB656
:101280000F9211242F933F938F939F93AF93BF930C
:101290008091862290918722A0918822B091892204
:1012A0003091852223E0230F2D3720F40196A11DD4
:1012B000B11D05C026E8230F0296A11DB11D209384
:1012C00085228093862290938722A0938822B093D0
:1012D000892280918A2290918B22A0918C22B091B8
:1012E0008D220196A11DB11D80938A2290938B229D
:1012F000A0938C22B0938D22BF91AF919F918F913B
:101300003F912F910F900FBE0F901F9018954F9205
:101310005F926F927F92AF92BF92CF92DF92EF92E5
:10132000FF920F931F93CF93DF93CDB7DEB727972D
:101330000FB6F894DEBF0FBECDBF7C018B01FB0161
:10134000C184D2844384548465847684A780B08425
:101350006EE272E0CE0101960E94E006B801CE0175
:1013600001960E949E056DE576E00E948505B50117
:101370000E94E1056DE576E00E948505B301A201BA
:101380000E944E056DE576E00E948505B6010E943B
:10139000E1056DE576E00E948505B8016A5E7F4F44
:1013A0000E949E0560E372E00E948505BC01C701B2
:1013B0000E94D606CE0101960E94BE06C70127965E
:1013C0000FB6F894DEBF0FBECDBFDF91CF911F9156
:1013D0000F91FF90EF90DF90CF90BF90AF907F90F4
:1013E0006F905F904F900895CF93DF93EC016CE383
:1013F00072E00E94E0066CE372E0CE010F960E945C
:10140000E0066CE372E0CE0146960E94E0066CE3D3
:1014100072E0CE014D96DF91CF910C94E006EF92F1
:10142000FF920F931F93CF93DF93CDB7DEB7A397B0
:101430000FB6F894DEBF0FBECDBF84E295E20E94E6
:10144000F810892B79F084E295E20E94BC108A3072
:1014500021F481E08093600605C0682F86EF95E255
:101460000E94EF0580916006882309F408C18FE08F
:1014700095E00E94860E86EF95E20E94B40E6CE322
:1014800072E0CE014D960E94E0066CE372E0CE0160
:1014900046960E94E0066BE372E0CE0101960E9440
:1014A000E006BE016F5F7F4F86EF95E20E947204F7
:1014B0008C01CE0101960E94BE06101611060CF09A
:1014C0004FC08CE195E00E94130F6BE372E0CE01F8
:1014D00001960E94E006BE016F5F7F4F86EF95E2A6
:1014E0000E947204AC0160E070E0CE0108960E9498
:1014F0002C10BE01685F7F4FCE0146960E943F06CA
:10150000CE0108960E94BE06CE0101960E94BE063C
:101510006BE372E0CE0101960E94E006BE016F5FB0
:101520007F4F86EF95E20E9472044091FA25509118
:10153000FB25BC016F5F7F4FCE0108960E942C10E7
:10154000BE01685F7F4FCE014D960E943F06CE01DF
:1015500008960E94BE06CE0101960E94BE0606C0F5
:1015600066EF75E2CE0146960E942806BE01635ED4
:101570007F4FCE010F960E94D606BE016A5E7F4F56
:10158000CE0108960E94D606088519850115110519
:1015900029F408E715E2E12CF12C17C0F80180814D
:1015A0008823B9F3082E000C990B0E949025F801AE
:1015B00081938F01F3CFF801248135818C859D853E
:1015C0002817390739F00E5E1F4FF5E2063F1F0757
:1015D00091F737C08081918168857985009719F0EE
:1015E00061157105A1F46115710549F0232B99F07E
:1015F000FB01808190E09195819591090AC0009747
:1016000051F0232B41F0FC01808190E002C00E9448
:10161000A125892BC1F6F801E780F084BE01615F46
:101620007F4FCE0101960E94D606CE010196F701AA
:101630000995CE0101960E94BE06EE24E394F12C9A
:10164000C2CFEF2821F489E295E00E94130FCE016A
:1016500008960E94BE06CE010F960E94BE066CE35D
:1016600072E086EF95E20E94110610926006CE01AC
:1016700046960E94BE06CE014D960E94BE06A396D7
:101680000FB6F894DEBF0FBECDBFDF91CF911F9193
:101690000F91FF90EF900895EF92FF920F931F9399
:1016A000CF93DF938C017B016CE372E00E94E00634
:1016B000C0E0D0E0F70184819581C817D90770F5A3
:1016C000BE01C7010E948C04803329F46CE375E0ED
:1016D000C8010E940206BE01C7010E948C0481332A
:1016E00029F461E475E0C8010E940206BE01C70149
:1016F0000E948C04823329F466E475E0C8010E94DC
:101700000206BE01C7010E948C04833329F46BE4F6
:1017100075E0C8010E9402062196CCCFC801DF9176
:10172000CF911F910F91FF90EF900895CF92DF928C
:10173000EF92FF920F931F93CF93DF93CDB7DEB756
:10174000CE55D1090FB6F894DEBF0FBECDBFCE0186
:1017500001960E94F40941E050E064E070E0CE019F
:1017600089960E943611BE01675D7F4FCE010196BA
:101770000E948106CE0189960E94C306CE01019681
:101780000E94310F60E575E0CE018F5A9F4F0E9495
:10179000E006BE016F5A7F4FCE0189960E94D606A1
:1017A000BE01675D7F4FCE01885A9F4F0E944C0B50
:1017B000BE01685A7F4FCE0140960E943F06CE017F
:1017C000885A9F4F0E94BE06CE0189960E94BE068F
:1017D0000E9430028B0180EDC82E87E0D82EE12CCC
:1017E000F12C0E943002601B710B683E734038F090
:1017F00081E0C81AD108E108F10808511C4FC11452
:10180000D104E104F10469F740E050E064E070E0E5
:10181000CE0189960E943611BE01675D7F4FCE01D1
:1018200001960E948106CE0189960E94C306CE01D0
:1018300001960E94310FCE018F5A9F4F0E94BE0623
:10184000CE0101960E94C306C25ADF4F0FB6F8942C
:10185000DEBF0FBECDBFDF91CF911F910F91FF90E3
:10186000EF90DF90CF900895E0912425F091252509
:101870000190F081E02D682F84E295E209940097B1
:1018800069F0FC0101900020E9F73197AF01481B96
:10189000590BBC0184E295E20C94080280E090E0D0
:1018A00008958F929F92AF92BF92CF92DF92EF9264
:1018B000FF920F931F93CF93DF938C01FC01A480C1
:1018C000B580812C912CC0E0D0E0C12CD12C7601C8
:1018D0008A149B0409F1B401C8010E948C04843766
:1018E000B9F42196CC0CDD1CEE1CFF1CB40181E781
:1018F00095E20E948C0441E050E060E070E08133AA
:1019000019F040E050E0BA01C42AD52AE62AF72AA5
:10191000FFEF8F1A9F0ADCCFC701B601219797010D
:1019200086010C2E04C035952795179507950A94C6
:10193000D2F7012B022B032B79F00FEF1FEF02C020
:10194000000F111FCA95E2F7012E000C220B330B7A
:10195000602B712B822B932BDF91CF911F910F91D5
:10196000FF90EF90DF90CF90BF90AF909F908F90BF
:1019700008957F928F929F92AF92BF92CF92DF9203
:10198000EF92FF920F931F93CF93DF93782E5B011B
:10199000EA010C811D81812C912CC12CD12C760166
:1019A00080169106F9F0B401CE010E948C048711D3
:1019B00015C0CC0CDD1CEE1CFF1CB401C5010E943F
:1019C0008C0441E050E060E070E0813319F040E0C9
:1019D00050E0BA01C42AD52AE62AF72A8FEF881ADE
:1019E000980ADECFC701B601DF91CF911F910F9109
:1019F000FF90EF90DF90CF90BF90AF909F908F902F
:101A00007F9008954F925F926F927F929F92AF92D4
:101A1000BF92CF92DF92EF92FF920F931F93CF93DB
:101A2000DF93CDB7DEB728970FB6F894DEBF0FBEB1
:101A3000CDBF982E6B011A8219821C821B8281E015
:101A400090E09E838D8318861F82FB01A480B58061
:101A500000E010E0412C512C32010A151B05E8F57D
:101A6000B801C6010E948C04891134C0440C551C75
:101A7000661C771CB80181E795E20E948C0421E086
:101A800030E0813311F020E030E07901EE0CFF1CF2
:101A9000B8016F5F7F4F81E795E20E948C0421E0DF
:101AA00030E0813311F020E030E0F701E22BF32B3E
:101AB000EE0FFF1F81E090E08C0F9D1FE80FF91FD4
:101AC00080819181092E000CAA0BBB0B482A592A50
:101AD0006A2A7B2A0E5F1F4FC0CFC301B20128962E
:101AE0000FB6F894DEBF0FBECDBFDF91CF911F912F
:101AF0000F91FF90EF90DF90CF90BF90AF909F90AD
:101B00007F906F905F904F9008959F92AF92BF9299
:101B1000CF92DF92EF92FF920F931F93CF93DF93B9
:101B2000982E8B01FB01A480B580C0E0D0E0C12CD1
:101B3000D12C7601CA15DB05F1F0BE01C8010E9467
:101B40008C04891116C0CC0CDD1CEE1CFF1CBE01E0
:101B500081E795E20E948C0441E050E060E070E093
:101B6000803319F040E050E0BA01C42AD52AE62AB1
:101B7000F72A2196DFCFC701B601DF91CF911F91E0
:101B80000F91FF90EF90DF90CF90BF90AF909F901C
:101B90000895CF93DF938DE00E94340CEC018AE02E
:101BA0000E94340C8C0F9D1FDF91CF9108958F926E
:101BB0009F92AF92BF92EF92FF920F931F93CF939A
:101BC000DF93CDB7DEB7A1970FB6F894DEBF0FBE97
:101BD000CDBF162F042F19A2423008F40AE07E016F
:101BE00021E2E20EF11C802E912CA12CB12C612F50
:101BF000A50194010E942328029F1019112481E05D
:101C0000E81AF1081A3014F4105D01C0195CF701EC
:101C10001083122F732FCA01232B242B252B39F766
:101C2000C7010E943F0CA1960FB6F894DEBF0FBE0D
:101C3000CDBFDF91CF911F910F91FF90EF90BF909B
:101C4000AF909F908F900895CF92DF92EF92FF9286
:101C5000CF93DF936B017C014115510581F4E09135
:101C60002425F09125250190F081E02D84E295E274
:101C7000DF91CF91FF90EF90DF90CF9009944A30A1
:101C80005105D1F497FF17C08DE20E94340CEC018E
:101C900066277727CB016C197D098E099F094AE0D9
:101CA0000E94D70D8C0F9D1FDF91CF91FF90EF9079
:101CB000DF90CF9008954AE0C701B601DF91CF9140
:101CC000FF90EF90DF90CF900C94D70D0F931F9360
:101CD000CF93DF9300E010E0FC016491EC012196CA
:101CE000662371F0E0912425F09125250190F08183
:101CF000E02D84E295E20995080F191FCE01ECCF83
:101D0000C801DF91CF911F910F9108950C943F0C62
:101D1000EF92FF920F931F93CF93DF937C01C0E06C
:101D2000D0E000E010E0F70184819581C817D90761
:101D300098F4BE01C7010E948C04E0912425F09123
:101D400025250190F081E02D682F84E295E2099528
:101D5000080F191F2196E7CFC801DF91CF911F917E
:101D60000F91FF90EF900895CF93DF930E94880E1C
:101D7000EC010E94C90D8C0F9D1FDF91CF9108953A
:101D8000A82FB0E0AA0FBB1FA257BD4D11967C93A0
:101D90006E9390E08830910508F044C0FC01ED5747
:101DA000FF4F0C946428809169008C7F8160809340
:101DB0006900E89A089580916900837F8460809328
:101DC0006900E99A0895809169008F7C8061809311
:101DD0006900EA9A0895809169008F738064809306
:101DE0006900EB9A089580916A008C7F81608093EE
:101DF0006A00EC9A089580916A00837F84608093E2
:101E00006A00ED9A089580916A008F7C80618093CA
:101E10006A00EE9A089580916A008F7380648093BF
:101E20006A00EF9A0895CF93DF930E943F0CEC0174
:101E30000E94C90D8C0F9D1FDF91CF910895CF9304
:101E4000DF93BC01990F880B990B4AE050E00E9488
:101E5000240EEC010E94C90D8C0F9D1FDF91CF91C4
:101E600008952F923F924F925F926F927F928F923E
:101E70009F92AF92BF92CF92DF92EF92FF920F9319
:101E80001F93CF93DF93CDB7DEB77C012DB63EB65F
:101E9000FC01C388D4888FE096E00E94860E80E023
:101EA00090E00E941F0F84E296E00E94860EF701E8
:101EB000818592850E941F0F8DE296E00E94860E1A
:101EC0004701FFE08F0E911CC4010E94B40E84E311
:101ED00096E00E94860EF7016389748980E090E0A5
:101EE0004AE00E94D70D0E94C90D8CE396E00E9443
:101EF000860E86E090E00E941F0FC6010196880FB3
:101F0000991F880F991F2DB73EB7281B390B0FB6A5
:101F1000F8943EBF0FBE2DBF8DB79EB701965C01F2
:101F20003C01412C512C4C145D04B4F5B201C401A8
:101F30000E948C048A3784F4082F082E000C110BA1
:101F40008A3344F08B351CF00755110905C007533F
:101F5000110902C000531109F70121853285029F42
:101F6000C001039F900D129F900D1124092E000CAB
:101F7000AA0BBB0B83339105A105B1051CF00A9791
:101F8000A109B109F30181939193A193B1933F0109
:101F9000FFEF4F1A5F0AC7CF60E08EE00E94F6069F
:101FA00061E08FE00E94F606F89436E0E32EF12C13
:101FB00066246394450100E010E0772473940C15C7
:101FC0001D05BCF4672D8EE00E94F606F401819198
:101FD0009191A191B1914F01019739F0880F991F0B
:101FE000880F991F02970197F1F776240F5F1F4F13
:101FF000E6CFF1E0EF1AF108E9F660E08EE00E942A
:10200000F60660E08FE00E94F606789480E090E0AB
:102010000FB6F8943EBE0FBE2DBEDF91CF911F913B
:102020000F91FF90EF90DF90CF90BF90AF909F9077
:102030008F907F906F905F904F903F902F9008957A
:10204000CF93DF930E94660EEC010E94C90D8C0FA6
:102050009D1FDF91CF910895DF92EF92FF920F9332
:102060001F93CF93DF937C018B01EA01461757073B
:1020700020F4812F8A01C62FD82F6CE372E0C701AC
:102080000E94E0068091FA259091FB258017910728
:10209000E0F08C179D0708F4EC01E091F625F09133
:1020A000F725EC0FFD1FD08010826091F62570910E
:1020B000F725600F711FC7010E941106E091F625F8
:1020C000F091F725EC0FFD1FD082C701DF91CF9172
:1020D0001F910F91FF90EF90DF90089508950F9357
:1020E0001F93CF93DF93FC01A685B7858D01005C1C
:1020F0001F4FE8018881998101968F739927AD015F
:102100004E5B5F4FEA012881398182179307D1F333
:10211000E80128813981A20FB31F6C93A685B7858A
:10212000A05CBF4F11969C938E93A689B7892C9182
:1021300081E090E0078C02C0880F991F0A94E2F7B3
:10214000822B8C9381E081A30488F589E02D808126
:102150008064808381E090E0DF91CF911F910F91A7
:102160000895FC0181A1882329F0A489B5898C9167
:1021700086FFFBCF11A20895FC01A485B585FD0162
:10218000E05CFF4F20813181329680819181281758
:10219000390779F080819181A80FB91F8C91208136
:1021A00031812F5F3F4F2F7333273183208390E09E
:1021B00008958FEF9FEF0895DC011C96ED91FC913F
:1021C0001D97DF01A05CBF4F2D913C911197129696
:1021D0008D919C9111972817390739F08D919C9119
:1021E000E80FF91F808190E008958FEF9FEF089529
:1021F000FC0124853585F901E05CFF4F80819181E8
:10220000329620813181821B930B8F739927089519
:10221000FB01E05CFF4F208131812F5F3F4F2F7327
:102220003327DB01AE5BBF4F4D915C91241735071F
:1022300041F040815181DB01A40FB51F8C933183A4
:102240002083089584E295E20E94F810892B11F012
:102250000E940F0A8AE794E20E94F81080ED93E250
:102260000E94F81086E293E20C94F8106F927F922D
:102270008F929F92AF92BF92CF92DF92EF92FF9296
:102280000F931F93CF93DF93CDB7DEB765970FB64C
:10229000F894DEBF0FBECDBF8C014B015A010E94E6
:1022A000F40986E990E0F801928781877801FFE0E0
:1022B000EF0EF11C6CE372E0C7010E9411066CE3A3
:1022C00072E0CE010F960E94E00694E0C92ED12C58
:1022D00066246394712CC3010C2C02C095958795DC
:1022E0000A94E2F7892B19F464E475E002C06BE507
:1022F00075E0CE010F960E94020681E0C81AD1084F
:1023000050F78094909484E0C82ED12CC4010C2CFA
:1023100002C0959587950A94E2F780FD03C066E4B4
:1023200076E002C06BE575E0CE010F960E940206D2
:10233000F1E0CF1AD10850F7A114B10419F46AE5FD
:1023400075E005C0AA94AB2831F465E476E0CE01CF
:102350000F960E940206BE01615F7F4FCE01089674
:102360000E94D606BE01685F7F4FCE0101960E9493
:102370004C0BBE016F5F7F4FC7010E947506CE01F7
:1023800001960E94BE06CE0108960E94BE0668E431
:1023900076E0C7010E9402068BE496E00E94860E5A
:1023A000CE010F960E94B40E82E596E00E94860E42
:1023B000C7010E94B40ECE010F960E94BE06C8014E
:1023C00065960FB6F894DEBF0FBECDBFDF91CF91FB
:1023D0001F910F91FF90EF90DF90CF90BF90AF9043
:1023E0009F908F907F906F9008951F920F920FB6DD
:1023F0000F9211240BB60F922F933F938F939F93BD
:10240000EF93FF932091DE223091DF228091E02232
:102410009091E1222817390731F4809131018F7DA5
:102420008093310114C0E091E022F091E122E25664
:10243000FD4D20818091E0229091E12201968F73E1
:1024400099279093E1228093E02220933601FF9117
:10245000EF919F918F913F912F910F900BBE0F9015
:102460000FBE0F901F9018951F920F920FB60F92EC
:1024700011240BB60F922F933F938F939F93EF935B
:10248000FF93209188233091892380918A23909112
:102490008B232817390731F48091D1008F7D8093E9
:1024A000D10014C0E0918A23F0918B23E85BFC4DAE
:1024B000208180918A2390918B2301968F73992795
:1024C00090938B2380938A232093D600FF91EF91E2
:1024D0009F918F913F912F910F900BBE0F900FBE48
:1024E0000F901F9018951F920F920FB60F92112404
:1024F0000BB60F922F933F938F939F93EF93FF937E
:1025000020913224309133248091342490913524C9
:102510002817390731F48091C9008F7D8093C90055
:1025200014C0E0913424F0913524EE50FC4D20810C
:10253000809134249091352401968F73992790933C
:102540003524809334242093CE00FF91EF919F9106
:102550008F913F912F910F900BBE0F900FBE0F9058
:102560001F9018951F920F920FB60F9211240BB661
:102570000F922F933F938F939F93EF93FF9320910D
:10258000DC243091DD248091DE249091DF24281713
:10259000390731F48091C1008F7D8093C10014C050
:1025A000E091DE24F091DF24E456FB4D2081809100
:1025B000DE249091DF2401968F7399279093DF2476
:1025C0008093DE242093C600FF91EF919F918F911D
:1025D0003F912F910F900BBE0F900FBE0F901F9049
:1025E00018951F920F920FB60F9211240BB60F92EF
:1025F0002F933F934F935F936F937F938F939F930B
:10260000AF93BF93EF93FF938091300182FD07C09A
:102610008091360162EE72E20E94081102C0809140
:102620003601FF91EF91BF91AF919F918F917F9173
:102630006F915F914F913F912F910F900BBE0F9033
:102640000FBE0F901F9018951F920F920FB60F920A
:1026500011240BB60F922F933F934F935F936F9379
:102660007F938F939F93AF93BF93EF93FF9380914B
:10267000D00082FD07C08091D6006CE873E20E9412
:10268000081102C08091D600FF91EF91BF91AF91E8
:102690009F918F917F916F915F914F913F912F917A
:1026A0000F900BBE0F900FBE0F901F9018951F92AA
:1026B0000F920FB60F9211240BB60F922F933F93E8
:1026C0004F935F936F937F938F939F93AF93BF933A
:1026D000EF93FF938091C80082FD07C08091CE00E8
:1026E00066E374E20E94081102C08091CE00FF915F
:1026F000EF91BF91AF919F918F917F916F915F917A
:102700004F913F912F910F900BBE0F900FBE0F90E6
:102710001F9018951F920F920FB60F9211240BB6AF
:102720000F922F933F934F935F936F937F938F936A
:102730009F93AF93BF93EF93FF938091C00082FD6F
:1027400007C08091C60060EE74E20E94081102C0CA
:102750008091C600FF91EF91BF91AF919F918F91B2
:102760007F916F915F914F913F912F910F900BBE91
:102770000F900FBE0F901F901895CF93DF93CDB79A
:10278000DEB7CC5BD1090FB6F894DEBF0FBECDBF6C
:10279000789484B5826084BD84B5816084BD85B53C
:1027A000826085BD85B5816085BD80916E00816048
:1027B00080936E00109281008091810082608093EE
:1027C00081008091810081608093810080918000F0
:1027D0008160809380008091B10084608093B1001B
:1027E0008091B00081608093B00080919100826000
:1027F00080939100809191008160809391008091FD
:1028000090008160809390008091A100826080930D
:10281000A1008091A10081608093A1008091A0001F
:1028200081608093A00080912101826080932101CA
:10283000809121018160809321018091200181603C
:102840008093200180917A00846080937A00809147
:102850007A00826080937A0080917A008160809310
:102860007A0080917A00806880937A001092C1008B
:10287000E0913825F09139251082E0913425F091CE
:1028800035251082E0913625F091372580E180834F
:1028900010924525E0913A25F0913B25208101E0F9
:1028A00010E0C8010090402502C0880F991F0A94CB
:1028B000E2F7822B8083E0913A25F0913B2520813D
:1028C000C8010090412502C0880F991F0A94E2F7C1
:1028D000822B8083E0913A25F0913B252081C8012D
:1028E0000090422502C0880F991F0A94E2F7822BBC
:1028F0008083E0913A25F0913B25908198010090EA
:10290000432502C0220F331F0A94E2F7822F8095DD
:102910008923808384E295E20E94B1106CE372E027
:1029200086EF95E20E941106109260066CE372E059
:10293000CE0101960E94E006CE0101960E94F303AB
:10294000CE0101960E94BE066CE372E0CE010196B4
:102950000E94E006CE0101960E94C703CE010196B7
:102960000E94BE0661E080E10E946D0761E085E1A2
:102970000E946D0761E080E10E94F60662E083E15B
:102980000E946D0761E084E00E946D0761E086E0CF
:102990000E946D0761E084E00E946D0761E084E0C1
:1029A0000E94F60662E082E00E946D0762E082E12A
:1029B0000E946D0761E080E10E946D0761E086E1A1
:1029C0000E946D0761E086E10E94F60661E08DE0FD
:1029D0000E946D0761E08FE00E946D0761E08EE06C
:1029E0000E946D0760E08EE00E94F60660E08FE0D6
:1029F0000E94F60664E373E084E00E94C00E69E280
:102A000073E080E00E94C00E86E192E00E94130F06
:102A100010935925009358256CE372E0CE0101967E
:102A20000E94E006CE0101960E94960BCE0101960F
:102A30000E94BE06CE0101960E94F4090E9431094F
:102A4000C155DF4F688379838A839B83CF5AD040F7
:102A50000E943109C555DF4F688379838A839B8340
:102A6000CB5AD040C056DF4F188219821A821B827F
:102A7000C05AD04022E535E2CB54DF4F398328835A
:102A8000C55BD0404EE555E2CD54DF4F59834883B6
:102A9000C35BD0406DE171E2C855DF4F7983688335
:102AA000C85AD04089E590E2C257DF4F99838883A6
:102AB000CE58D040ADEFB5E2CC55DF4FB983A883F7
:102AC000C45AD040E1EFFFE0C457DF4FF983E883F9
:102AD000CC58D040CA55DF4F79836883C65AD0405E
:102AE000C856DF4F59834883C859D04062E575E224
:102AF000C256DF4F79836883CE59D040CC56DF4F22
:102B000019821882C459D040C256DF4FA881B981BA
:102B1000CE59D0402D913C91C856DF4FE881F981C4
:102B2000C859D040808191812817390709F44AC6D5
:102B30006CE372E083E196E20E941106C856DF4F13
:102B4000A881B981C859D0408D919C91C256DF4F60
:102B5000E881F981CE59D040208131812817390789
:102B600049F486E191E00E942010CC24CA94DC2C28
:102B700076012DC02CECCC56DF4FA880B980C4590B
:102B8000D0402A9DF0012B9DF00D1124E80FF91F74
:102B9000EE0FFF1FEE0FFF1FEF59F94FC080D180DE
:102BA000E280F3800196883C910548F4C856DF4FD7
:102BB000A881B981C859D0408D939C9308C0C8564C
:102BC000DF4FE881F981C859D040118210826CE34F
:102BD00072E0CE014E960E941106C257DF4FA881C7
:102BE000B981CE58D040C114D104E104F10409F0F8
:102BF0005AC20D911C91093111050CF44BC2C457F6
:102C0000DF4FE881F981CC58D040F081C754DF4FC5
:102C1000F883C95BD040C457DF4FA881B981CC5835
:102C2000D0401196BC91C654DF4FB883CA5BD040E8
:102C3000C457DF4FE881F981CC58D040F281C554A8
:102C4000DF4FF883CB5BD040C457DF4FA881B981F9
:102C5000CC58D0401396BC91C454DF4FB883CC5BA2
:102C6000D040C754DF4FC880C95BD040C654DF4F47
:102C7000D880CA5BD040EF2EFB2E20E030E080E011
:102C800090E0C457DF4FE881F981CC58D040E20F83
:102C9000F31F40815181628173814C155D056E0582
:102CA0007F0514F46A017B0101962C5F3F4F80176A
:102CB000910739F7C057DF4FC882C059D040CA5674
:102CC000DF4FD882C659D040C456DF4FE882CC5976
:102CD000D040C655DF4FF882CA5AD040C701B6016E
:102CE0000E94F2264B015C0120E030E040E05FE30F
:102CF0000E94A2272B013C01212C312CC656DF4F0C
:102D000019821882CA59D040CE56DF4F19821882D4
:102D1000C259D040C457DF4FE881F981CC58D04028
:102D2000E20DF31D60817181828193810E94F22600
:102D3000A30192010E94D725A50194010E94482673
:102D400020E030E040E85FE30E94432681110DC09F
:102D5000C656DF4FE881F981CA59D0403196C65630
:102D6000DF4FF983E883CA59D040CE56DF4F288120
:102D70003981C259D0402F5F3F4FCE56DF4F398344
:102D80002883C259D04034E0230E311CCE56DF4F89
:102D900048815981C259D0404017510709F0BACF34
:102DA000C8016AE070E00E940F28C656DF4FA88075
:102DB000B980CA59D040A616B7060CF044C0CC0C56
:102DC000DD1CEE1CFF1C40E050E020E030E060E045
:102DD00070E0CB01A0E0B0E0C457DF4FE881F9819B
:102DE000CC58D040E40FF51F408051806280738042
:102DF0004C145D046E047F0434F4640D751D861D4F
:102E0000971D2F5F3F4F11964C5F5F4FA017B10783
:102E100019F7032E000C440B550B0E944528C05790
:102E2000DF4F2883C059D040CA56DF4F3883C65978
:102E3000D040C456DF4F4883CC59D040C655DF4FF1
:102E40005883CA5AD0406EE272E0CE0189960E9441
:102E5000E006CC55DF4F68817981C45AD040CE015D
:102E600089960E949E056DE576E00E948505B80171
:102E70000E94E1056DE576E00E948505C754DF4FAD
:102E80004881C95BD040C654DF4F5881CA5BD040EF
:102E9000C554DF4F6881CB5BD040C454DF4F78818D
:102EA000CC5BD0400E944E056DE576E00E94850522
:102EB000C057DF4F4881C059D040CA56DF4F5881B4
:102EC000C659D040C456DF4F6881CC59D040C65552
:102ED000DF4F7881CA5AD0400E944E056DE576E0FA
:102EE0000E948505BC01CE014E960E942806CE01A7
:102EF00089960E94BE065E0127E1A20EB11C6CE31A
:102F000072E0C5010E941106C257DF4FA881B98146
:102F1000CE58D0408D919C9199878887C057DF4FBC
:102F20008881C059D040CA56DF4F9881C659D040D9
:102F30009B878A87C457DF4FE881F981CC58D040FE
:102F400080819181A281B3818C879D87AE87BF8765
:102F5000CC55DF4F68817981C45AD040CE010196AB
:102F60000E942806F885C854DF4FF883C85BD0401C
:102F7000C954DF4F1882C75BD040C954DF4F288146
:102F80003981C75BD040C901330FAA0BBB0B8DA39E
:102F90009EA3AFA3B8A700E010E0C12CD12CFA2C5F
:102FA000EB2CC257DF4FA881B981CE58D0408D910C
:102FB0009C918C159D050CF467C0C057DF4F68814C
:102FC000C059D040CA56DF4F7881C659D040C45648
:102FD000DF4F8881CC59D040C655DF4F9881CA5AFF
:102FE000D0400E94F2264B015C01C457DF4FE881BC
:102FF000F981CC58D040E00FF11F6081718182814E
:1030000093810E94F2262B013C0123E333E343E347
:103010005FE3C501B4010E94A2279B01AC01C3017B
:10302000B2010E94D725A50194010E9448260E9462
:10303000BA269B014B01072E000CAA08BB084DA025
:103040005EA06FA078A484249524A624B7248DA222
:103050009EA2AFA2B8A66432710544F46A3071052D
:103060003CF48F2D9E2D0E94B10508C023E230E074
:1030700067E5620F8F2D9E2D0E94EF053FEFC31A6B
:10308000D30A0C5F1F4F8DCF60E372E0CE014E96E6
:103090000E940206C257DF4FE881F981CE58D04026
:1030A0001182108232C02D913C9111974EE551E072
:1030B000CC56DF4FA880B980C459D040A49EC0012F
:1030C000A59E900DB49E900D1124FC01E20FF31FFC
:1030D000EE0FFF1FEE0FFF1FEF50F04FC082D182A7
:1030E000E282F3822F5F3F4F2D933C932E35314088
:1030F00064F082E392E00E94130FC257DF4FA88171
:10310000B981CE58D0401D921C926CE372E0CE0182
:103110004E960E949D04811155C34DA15EA16FA1E1
:1031200078A520E030E080E090E0CA55DF4FE881EC
:10313000F981C65AD040E20FF31FC080D180E280EF
:10314000F380C416D506E606F706B9F42EE1CC5690
:10315000DF4FA880B980C459D0402A9DF0012B9D33
:10316000F00D1124E80FF91FEE0FFF1FE759FF4D77
:1031700088EE93E09183808325C301962C5F3F4FB7
:103180008E31910591F680E090E020E030E0CA5564
:10319000DF4FE881F981C65AD040E80FF91FC0809F
:1031A000D180E280F380CD28CE28CF2851F5EEE102
:1031B000CC56DF4FA880B980C459D040EA9DC001E9
:1031C000EB9D900D1124820F931FFC01EE0FFF1F4A
:1031D000E759FF4DA8EEB3E0B183A083880F991F94
:1031E000880F991FFC01E35EFE4D4083518362838B
:1031F00073832D31310561F48DE392E00E94130F4A
:1032000007C02F5F3F4F04962E31310509F0BFCF25
:10321000BE016F5F7F4FCE0189960E948709CE0164
:1032200089960E94B40ECE0189960E94BE06BE0108
:103230006F5F7F4FCE0189960E948709BE01675D4F
:103240007F4FCE014E960E943F06CE0189960E9486
:10325000BE060E9431091092602010925F201092E9
:1032600062201092612010926420109263201092CC
:1032700066201092652010926820109267206AA044
:103280007BA06114710421F488248A94982C18C0BE
:10329000EE8DFF8DE60DF71DF08010820E8D1F8DD7
:1032A0006AE370E0C8010E94B125F801E60DF71D40
:1032B000F082009749F32E8D3F8D4C01821A930ABC
:1032C00094012F5F3F4FCA56DF4F39832883C65979
:1032D000D0401301221A330A910121503109C057FD
:1032E000DF4F39832883C059D040283131050CF491
:1032F00063C2AE01475B5F4F7A01CA018096FA0153
:1033000011921192E817F907D9F701E010E0B8011E
:10331000680D791DCE014E960E948C048A3314F0FC
:10332000E5EB01C0E0EDE80FE0316CF4EE0FFF0BD0
:1033300069E470E06C0F7D1FE60FF71F80819181BB
:103340000196918380830F5F1F4F02151305F9F6D5
:1033500000E010E080E090E0D7012D913D917D01EB
:103360001216130684F4F801EE0FFF1F59E4A52E80
:10337000B12CAC0EBD1EEA0DFB1D408151814217E0
:1033800053070CF48C0101968031910529F7AE01A9
:10339000475D5F4FFA0180E090E081939193019641
:1033A00080319105D1F780E090E0FA019C012F3047
:1033B000310559F1E190F1902F5F3F4FC080D180EE
:1033C000B701660F771FA9E4B0E0AC0FBD1F6A0F0D
:1033D0007B1FD601AA0FBB1F0F2EF9E44F2E512CD5
:1033E000F02D4C0E5D1E4A0E5B1EDB016D917C9133
:1033F000D201AD90BC906A157B05CCF6DF01129727
:10340000CD92DC92F182E082D2CF01964E5F5F4F87
:103410008031910551F6C057DF4FA880B980C0595F
:10342000D040B594A794C656DF4FB982A882CA5936
:10343000D04089A59AA5FC01EE0FFF1F29E430E0DA
:103440002C0F3D1FE20FF31F408151819501235046
:103450003109421753070CF438C16BA57CA5FB0159
:10346000EE0FFF1FA9E4B0E0AC0FBD1FEA0FFB1F7A
:1034700020813181240F351FA101445051092417A7
:1034800035070CF422C1681779071CF4CB016DA530
:103490007EA58A3091051CF037E3B32E02C020E3ED
:1034A000B22EB80E6A3071051CF097E3F92E02C0F7
:1034B00080E3F82EF60E6CE372E0CE0182589F4F47
:1034C0000E94E0066B2DCE0182589F4F0E94EF05AF
:1034D0006F2DCE0182589F4F0E94EF056F2DCE01B8
:1034E00082589F4F0E94EF056B2DCE0182589F4F4F
:1034F0000E94EF056CE372E0CE0189589F4F0E9455
:10350000E0066F2DCE0189589F4F0E94EF056B2D6D
:10351000CE0189589F4F0E94EF056B2DCE0189582F
:103520009F4F0E94EF056F2DCE0189589F4F0E943B
:10353000EF05BE0169587F4FCE014E960E942204CE
:10354000BE01181619061CF469587F4F02C0625854
:103550007F4FCE014E960E9422046CE372E0CE01B2
:1035600080599F4F0E94E0067401B2E0EB0EF11CFF
:103570006701F1E0CF1AD108C614D7044CF5B601A3
:10358000CE014E960E948C04B7018B1539F0CE0106
:103590004E960E948C048B1117C007C0CE014E9628
:1035A0000E948C04B8160CF46AC2B601CE014E9685
:1035B0000E948C04B81644F4B701CE014E960E94C6
:1035C0008C048B1509F462C2E2E0EE0EF11CD0CF40
:1035D00084E192E00E94660EE6966EAD7FADE697BE
:1035E00080E090E04AE00E94D70D8DE596E00E94D1
:1035F000860ECE0180599F4F0E94880E0E94C90DF1
:10360000E6968EAD9FADE6974797029708F04EC0BD
:103610008AE291E00E94660E68E472E0CE0187596A
:103620009F4F0E94E00680E692E00E94860EAE0167
:1036300047595F4FBE0160597F4F8AE70E94B90C1E
:103640004AE050E00E94240E85E692E00E94860E39
:10365000AE0147595F4FBE0160597F4F81E60E941E
:10366000B90C4AE050E00E94240E8EE692E00E94DF
:10367000860EAE0147595F4FBE0160597F4F88E704
:103680000E94B90C4AE050E00E94240E87E792E0C5
:103690000E94860ECE0180599F4F0E94880E0E9484
:1036A000C90DCE0187599F4F0E94BE06CE01805999
:1036B0009F4F0E94BE06CE0189589F4F0E94BE06B2
:1036C000CE0182589F4F0E94BE06F801EE0FFF1FE9
:1036D000B9E4AB2EB12CAC0EBD1EEA0DFB1D208152
:1036E0003181CE56DF4F39832883C259D0407101D2
:1036F00036E0E31AF108F7FE04C0710145E0E41A70
:10370000F108F594E794CE56DF4FA880B980C259EE
:10371000D040EA14FB040CF04FC00A30110514F03D
:10372000095C01C0005DCC24C394D12C412C512CE8
:10373000A12CB12C960121503109C456DF4F398399
:103740002883CC59D040B601680D791DCE014E9624
:103750000E948C0480130EC0C456DF4F3881CC59B0
:10376000D04030FF04C04FEFA41AB40A03C05FEF8B
:10377000451A550A6FEFC61AD60AC214D304D1F6F9
:10378000E414F5040CF4E9C488C1BE0162587F4F0B
:10379000CE018B579F4F0E9472046C01CC0CDD1C34
:1037A00096FFBFC1CE0182589F4F0E94BE06CE0138
:1037B0008B579F4F0E94BE066CE372E083E196E256
:1037C0000E941106CC56DF4F48815981C459D04020
:1037D0004F5F5F4FCC56DF4F59834883C459D04069
:1037E000C256DF4F68817981CE59D0406E5F7F4FDE
:1037F000C256DF4F79836883CE59D040C856DF4F19
:1038000088819981C859D0400296C856DF4F998364
:103810008883C859D040CA55DF4FA881B981C65A9C
:10382000D040A858BF4FCA55DF4FB983A883C65AA6
:10383000D040C257DF4FE881F981CE58D040329650
:10384000C257DF4FF983E883CE58D040CC55DF4FC5
:1038500028813981C45AD040295F3F4FCC55DF4F72
:1038600039832883C45AD040C457DF4F48815981D7
:10387000CC58D04048585A4FC457DF4F59834883DB
:10388000CC58D040CC56DF4F68817981C459D040A4
:103890006330710509F038C90E940F0AC056DF4F26
:1038A00088819981AA81BB81C05AD0400196A11D0F
:1038B000B11DC056DF4F88839983AA83BB83C05A4A
:1038C000D0400E9431096B017C01C555DF4F8881D2
:1038D0009981AA81BB81CB5AD0408C599F4FAF4F61
:1038E000BF4F8C159D05AE05BF050CF045C049E6E0
:1038F00050E280E090E0FA01E80FF91F2081318169
:1039000012161306CCF4253631052CF02456310955
:103910003183208311C011821082FC01EE0FFF1F42
:10392000C855DF4FA880B980C85AD040EA0DFB1DAA
:10393000108211821282138202968C339105D9F67D
:10394000445C5F4FC855DF4F28813981C85AD04049
:1039500028583F4FC855DF4F39832883C85AD04075
:1039600031E24D31530729F6C555DF4FC882D98260
:10397000EA82FB82CB5AD040C155DF4F88819981C2
:10398000AA81BB81CF5AD040805F984DAF4FBF4FC7
:103990008C159D05AE05BF050CF06CC885E392E063
:1039A0000E94660E4AE050E0C056DF4F6881798180
:1039B0008A819B81C05AD0400E94240E812C912C78
:1039C00054018AE292E00E94660E4AE050E0C5018E
:1039D000B4010E94240E8DE596E00E94860ECB5421
:1039E000DF4FA881B981C55BD0408D919D91CB54AB
:1039F000DF4FB983A883C55BD040CD54DF4FE8814A
:103A0000F981C35BD04021913191CD54DF4FF983CF
:103A1000E883C35BD0408217930749F02817390722
:103A200010F088539F4FBC01621B730B02C060E013
:103A300070E0072E000C880B990B4AE050E00E94C2
:103A4000240EFFEF8F1A9F0AAF0ABF0A23E08216E7
:103A50009104A104B10409F0B4CF80E292E00E9485
:103A6000660E80E090E00E941F0FC155DF4FC882B4
:103A7000D982EA82FB82CF5AD0400C94321560E39F
:103A8000CE0180599F4F0E94EF058FCD61E3CE019B
:103A900080599F4F0E94EF0597CDEA14FB040CF06C
:103AA0008BCEEE24E394F12C6CE372E0CE018B57C5
:103AB0009F4F0E94E0066CE372E0CE0182589F4F58
:103AC0000E94E0065CE0C52ED12C602FCE0182580A
:103AD0009F4F0E94EF0571E0C71AD108B1F7CA568F
:103AE000DF4FA880B980C659D040EA0CFB1C6701A3
:103AF000C057DF4FA880B980C059D040CA14DB043A
:103B00000CF043CEB601CE014E960E948C04682F75
:103B1000CE018B579F4F0E94EF0522E0C20ED11CB1
:103B2000E7CF6CE372E081E795E20E9411066CE357
:103B300072E08AE695E20E941106C656DF4F888140
:103B40009981CA59D0400196CE56DF4F28813981DC
:103B5000C259D0408217930794F02BA53CA58DA5A0
:103B60009EA5820F931F97FD0196959587958A30A4
:103B7000910514F017E301C010E3180F01C0102FD6
:103B8000EC0CFD1CE614F7042CF5B701CE014E96A3
:103B90000E948C0480131EC0B70161507109CE01D0
:103BA0004E960E948C0418173CF461E381E795E27D
:103BB0000E94EF0560E306C060E381E795E20E94A2
:103BC000EF0561E38AE695E20E94EF0532E0E30E3D
:103BD000F11CD8CF0091752510917625053111057E
:103BE00009F055C084EF91E00E94660E6AEF72E022
:103BF000CE0180599F4F0E94E0066FE772E0CE0130
:103C000087599F4F0E94E00680E692E00E94860E50
:103C1000AE0147595F4F61E775E289E60E94B90C32
:103C20004AE050E00E94240E85E992E00E94860E50
:103C3000AE0147595F4F61E775E28BE60E94B90C10
:103C400040E150E00E94240E8BE992E00E94860E33
:103C5000AE0147595F4F61E775E286E60E94B90CF5
:103C60004AE050E00E94240E87E792E00E94860E10
:103C700081E795E20E94880E0E94C90DCE01875906
:103C80009F4F0E94BE06CE0180599F4F51C0003207
:103C9000110509F050C083EA92E00E94860E6FEA97
:103CA00072E0CE0187599F4F0E94E00680E692E0C5
:103CB0000E94860EAE0147595F4F61E775E289E6C3
:103CC0000E94B90C4AE050E00E94240E80ED92E080
:103CD0000E94860ECE0187599F4F0E94510C4AE0E8
:103CE00050E00E94240E87ED92E00E94860EAE0105
:103CF00047595F4F61E775E285E70E94B90C42E0E2
:103D000050E00E94240E81EE92E00E94860EAE01E9
:103D100047595F4F61E775E283E60E94B90C4AE0BC
:103D200050E00E94240E0E94C90DCE0187599F4F7A
:103D30000E94BE0639C10232110509F06CC087EE3F
:103D400091E00E94660E6EEE72E0CE0180599F4FA8
:103D50000E94E00662E173E0CE0187599F4F0E9406
:103D6000E00682EE91E00E94660EAE0147595F4F79
:103D700061E775E289E60E94B90C4AE050E00E94D2
:103D8000240E8BED91E00E94660ECE0187599F4F65
:103D90000E94510C4AE050E00E94240E85ED91E013
:103DA0000E94660EAE0147595F4F61E775E288E6F3
:103DB0000E94B90C4AE050E00E94240E8FEC91E082
:103DC0000E94660EAE0147595F4F61E775E282E6D9
:103DD0000E94B90C4AE050E00E94240E88EC91E069
:103DE0000E94660EAE0147595F4F61E775E283E6B8
:103DF0000E94B90C4AE050E00E94240E0E94C90DB6
:103E0000CE0187599F4F0E94BE06CE0180599F4F19
:103E10000E94BE062AC10432110509F05CC08BEB7A
:103E200091E00E94660E6CEE72E0CE0180599F4FC9
:103E30000E94E00660E173E0CE0187599F4F0E9427
:103E4000E00686EB91E00E94660EAE0147595F4F97
:103E500061E775E289E60E94B90C4AE050E00E94F1
:103E6000240E8FEA91E00E94660ECE0187599F4F83
:103E70000E94510C4AE050E00E94240E89EA91E031
:103E80000E94660EAE0147595F4F61E775E288E612
:103E90000E94B90C4AE050E00E94240E83EA91E0AF
:103EA0000E94660EAE0147595F4F61E775E282E6F8
:103EB0000E94B90C4AE050E00E94240E8CE991E087
:103EC0000E94660EAE0147595F4F61E775E283E6D7
:103ED0000E94B90CBBC00034110509F065C065E350
:103EE00073E0CE0189589F4F0E94E00666E773E0B9
:103EF000CE0180599F4F0E94E00667EB73E0CE0130
:103F000087599F4F0E94E00688EF93E00E94860E3B
:103F100080E692E00E94860EBE0167597F4F89E6D7
:103F20000E94020D40E150E00E94240E85E094E0E2
:103F30000E94860EBE0167597F4F87E60E94020DE0
:103F40004AE050E00E94240E8DE094E00E94860E2C
:103F5000BE0167597F4F8FE60E94020D4AE050E094
:103F60000E94240E85E194E00E94860EBE016759EE
:103F70007F4F85E70E94020D6F5F7F4F8F4F9F4FEE
:103F80004AE050E00E94240E0E94C90DCE018759DC
:103F90009F4F0E94BE06CE0180599F4F0E94BE06D1
:103FA000CE0189589F4FC1C00834110509F05DC08A
:103FB0006CE174E0CE0180599F4F0E94E00667EBF0
:103FC00073E0CE0187599F4F0E94E0068CE891E094
:103FD0000E94660E87E891E00E94660EBE01675956
:103FE0007F4F89E60E94020D40E150E00E94240EBE
:103FF0008FE791E00E94660EBE0167597F4F87E60A
:104000000E94020D4AE050E00E94240E84E791E0F5
:104010000E94660E8DE691E00E94660EBE01675911
:104020007F4F85E70E94020D6F5F7F4F8F4F9F4F3D
:104030004AE050E00E94240E87E691E00E94660E5E
:10404000BE0167597F4F84E60E94020D4AE050E0AE
:104050000E94240E0E94C90DCE0187599F4F0E94D5
:10406000BE06CE0180599F4F60C00835110509F08A
:104070005EC08AE591E00E94660E65E674E0CE01BE
:1040800087599F4F0E94E00685E591E00E94660EE9
:10409000AE0147595F4F61E775E289E60E94B90CAE
:1040A0004AE050E00E94240E8EE491E00E94660EE9
:1040B000BE0167597F4F84E70E94850D60597140AA
:1040C000810991094AE050E00E94240E88E491E0C1
:1040D0000E94660EBE0167597F4F88E60E94850DDB
:1040E0004AE050E00E94240E82E491E00E94660EB5
:1040F000BE0167597F4F82E60E94850D4AE050E07D
:104100000E94240E8BE391E00E94660EBE01675967
:104110007F4F87E60E94850D4AE050E00E94240E02
:104120000E94C90DCE0187599F4F0E94BE0683E0B1
:1041300092E00E94660E609175257091762580E070
:1041400090E04AE00E94D70D8DE596E00E94860E31
:1041500081E795E20E94B40E25CB91E080E0EA145D
:10416000FB040CF090E0E92EF82E9ECCCF93DF9369
:104170008AE695E20E94BE0681E795E20E94BE06AD
:10418000C6EFD5E26297CE010B960E94BE06CE0125
:104190000E94BE0685E2C837D807A1F786EF95E2F0
:1041A0000E94BE068BE096E20E94BE0684E096E284
:1041B0000E94BE068DEF95E20E94BE0683E196E264
:1041C000DF91CF910C94BE06CF92DF92EF92FF92D7
:1041D0000F931F93CF93DF931092272510922625DC
:1041E00088EEC82E83E0D82EE12CF12CC092282531
:1041F000D0922925E0922A25F0922B256AE072E0E0
:10420000709325256093242580EE94E290933125C8
:10421000809330258CE994E2909333258093322566
:1042200085EC90E0909335258093342584EC90E0E4
:10423000909337258093362580EC90E09093392534
:104240008093382581EC90E090933B2580933A252C
:1042500082EC90E090933D2580933C2586EC90E0A5
:1042600090933F2580933E2544E04093402533E0E2
:104270003093412527E02093422595E090934325F4
:1042800081E08093442510927D2410927C24C0927A
:104290007E24D0927F24E0928024F0928124709337
:1042A0007B2460937A24E6E3F4E2F0938724E0939E
:1042B0008624E2EFF3E2F0938924E0938824EDEC86
:1042C000F0E0F0938B24E0938A24ECECF0E0F093A0
:1042D0008D24E0938C24E8ECF0E0F0938F24E093BD
:1042E0008E24E9ECF0E0F0939124E0939024EAEC42
:1042F000F0E0F0939324E0939224EEECF0E0F0935E
:104300009524E0939424409396243093972420930B
:1043100098249093992480939A241092D3231092F6
:10432000D223C092D423D092D523E092D623F09208
:10433000D7237093D1236093D023ECE8F3E2F0937A
:10434000DD23E093DC23E8E4F3E2F093DF23E09362
:10435000DE23E5EDF0E0F093E123E093E023E4EDEC
:10436000F0E0F093E323E093E223E0EDF0E0F0935C
:10437000E523E093E423E1EDF0E0F093E723E0931D
:10438000E623E2EDF0E0F093E923E093E823E6EDA5
:10439000F0E0F093EB23E093EA234093EC23309397
:1043A000ED232093EE239093EF238093F02310923C
:1043B000292310922823C0922A23D0922B23E09203
:1043C0002C23F0922D23709327236093262362EEF3
:1043D00072E270933323609332236EE972E270933A
:1043E00035236093342365E371E070933723609342
:1043F000362364E371E0709339236093382360E3DC
:1044000071E070933B2360933A2361E371E0709312
:104410003D2360933C2362E371E070933F236093FC
:104420003E2366E371E07093412360934023409301
:104430004223309343232093442390934523809336
:1044400046236CE372E083E196E20E94E006E7E631
:10445000F5E244E655E22EE535E288E595E2C2E56F
:10446000D5E206E415E21192DA011D92AD01D901FF
:104470001D921D929D01DC011D921D92CD0119928C
:104480001992D8011D921D921D921D928D01B5E2C7
:10449000EA36FB0741F76AEC74E08DEF95E20E9483
:1044A000E00661ED74E084E096E20E94E00666EDCD
:1044B00074E08BE096E20E94E0066CE372E086EF27
:1044C00095E20E94E0066DE575E088E795E20E94BE
:1044D000E0068FEF93E09093802580937F251092E4
:1044E00082251092812562E675E083E895E20E94BC
:1044F000E00665E775E08AE895E20E94E00683EF52
:1045000093E0909392258093912510929425109298
:1045100093256DE775E085E995E20E94E0066AE87B
:1045200075E08CE995E20E94E00687EC93E09093B9
:10453000A4258093A3251092A6251092A52565E9B0
:1045400075E087EA95E20E94E0066CEA75E08EEA83
:1045500095E20E94E00680E095E09093B625809376
:10456000B5251092B8251092B72565EB75E089EB5B
:1045700095E20E94E00666EC75E080EC95E20E9410
:10458000E0068CEB94E09093C8258093C7251092A9
:10459000CA251092C92560ED75E08BEC95E20E946A
:1045A000E00662EE75E082ED95E20E94E00686E9A3
:1045B0009BE09093DA258093D9251092DC25109208
:1045C000DB256AEE75E08DED95E20E94E0066AEF6C
:1045D00075E084EE95E20E94E0068FEE93E0909302
:1045E000EC258093EB251092EE251092ED256FEFD0
:1045F00075E08FEE95E20E94E0066CE372E081E7E1
:1046000095E20E94E0066CE372E08AE695E2DF91B3
:10461000CF911F910F91FF90EF90DF90CF900C946E
:10462000E006F8940C948128BB274A3031F4992392
:1046300022F4BDE2909581959F4F0C945123BB27A6
:104640002A3051F4992342F4BDE2909580957095FB
:1046500061957F4F8F4F9F4F0C942F23BB27FA01FB
:10466000A62F6217710581059105330B30FB66F0AB
:10467000AA27660F771F881F991FAA1FA21710F07D
:10468000A21B63953850A9F7A05DAA3308F0A95D75
:10469000A19336F7B111B1931082CA010C946A2329
:1046A000BB27FB015527AA27880F991FAA1FA4170C
:1046B00010F0A41B83955051B9F7A05DAA3308F000
:1046C000A95DA193009779F7B111B1931192CB0134
:1046D0000C946A23DC01FC01672F71917723E1F7C9
:1046E000329704C07C916D9370836291AE17BF07BF
:1046F000C8F30895CF93DF938230910510F482E0E0
:1047000090E0E0911C26F0911D2620E030E0C0E012
:10471000D0E0309711F14081518148175907C0F01E
:104720004817590761F482819381209719F09B8380
:104730008A832BC090931D2680931C2626C02115AA
:10474000310519F04217530718F49A01BE01DF0131
:10475000EF010280F381E02DDCCF2115310509F155
:10476000281B390B2430310590F412968D919C91C1
:1047700013976115710521F0FB019383828304C0B7
:1047800090931D2680931C26FD01329644C0FD01A6
:10479000E20FF31F81939193225031092D933C93A3
:1047A0003AC020911A2630911B26232B41F42091E8
:1047B00002023091030230931B2620931A26209187
:1047C0000002309101022115310541F42DB73EB7A9
:1047D0004091040250910502241B350BE0911A26EA
:1047E000F0911B26E217F307A0F42E1B3F0B2817AE
:1047F000390778F0AC014E5F5F4F2417350748F05A
:104800004E0F5F1F50931B2640931A26819391935E
:1048100002C0E0E0F0E0CF01DF91CF9108950F9367
:104820001F93CF93DF93009709F48CC0FC0132975C
:104830001382128200911C2610911D26011511056C
:1048400081F420813181820F931F20911A263091AB
:104850001B262817390779F5F0931B26E0931A26B3
:1048600071C0D80140E050E0AE17BF0750F4129677
:104870002D913C911397AD012115310509F1D90115
:10488000F3CF9D01DA013383228360817181860F2A
:10489000971F8217930769F4EC0128813981260F4D
:1048A000371F2E5F3F4F318320838A819B81938303
:1048B0008283452B29F4F0931D26E0931C2642C0E9
:1048C0001396FC93EE931297ED01499159919E0135
:1048D000240F351FE217F30771F480819181840F53
:1048E000951F029611969C938E93828193811396C5
:1048F0009C938E931297E0E0F0E0D80112968D9190
:104900009C911397009719F0F8018C01F6CF8D91C7
:104910009C9198012E5F3F4F820F931F20911A2682
:1049200030911B262817390769F4309729F4109223
:104930001D2610921C2602C01382128210931B2681
:1049400000931A26DF91CF911F910F9108956F92D6
:104950007F928F929F92AF92BF92CF92DF92EF920F
:10496000FF920F931F93CF93DF93EC01009789F48D
:10497000CB01DF91CF911F910F91FF90EF90DF90CE
:10498000CF90BF90AF909F908F907F906F900C943E
:104990007A23FC01E60FF71F9C0122503109E21730
:1049A000F30708F4ACC0D9010D911C9111970617BB
:1049B0001707B0F00530110508F49FC0C80104972F
:1049C0008617970708F499C002501109061B170BA8
:1049D000019311936D937C93CF010E940F248DC09E
:1049E0005B01A01AB10A4C01800E911EA0911C26F9
:1049F000B0911D2640E050E0E12CF12C109709F415
:104A00004AC0A815B905D1F56D907C901197630146
:104A100082E0C80ED11CCA14DB0480F1A3014A193C
:104A20005B096A0182E0C80ED11C1296BC901297F5
:104A30001396AC91B5E0CB16D10440F0B282A383BB
:104A400051834083D9016D937C930AC00E5F1F4F41
:104A5000C301800F911FF90191838083EB2DFA2F01
:104A6000E114F10431F0D7011396FC93EE93129701
:104A700044C0F0931D26E0931C263FC08D919C916D
:104A800011974817590708F4AC017D0112960D9053
:104A9000BC91A02DB3CF80911A2690911B2688152A
:104AA0009905E1F446175707C8F4809100029091E8
:104AB0000102009741F48DB79EB7409104025091D6
:104AC0000502841B950BE817F907C8F4F0931B2621
:104AD000E0931A26F901718360830FC0CB010E9415
:104AE0007A237C01009759F0A801BE010E94982505
:104AF000CE010E940F24C70104C0CE0102C080E095
:104B000090E0DF91CF911F910F91FF90EF90DF9098
:104B1000CF90BF90AF909F908F907F906F900895AF
:104B20009111089581548A5108F4805E855A089540
:104B3000FB01DC0102C001900D9241505040D8F7BA
:104B40000895FB01DC018D91019080190110D9F3CA
:104B5000990B0895FB01DC0101900D920020E1F713
:104B60000895FC0181E090E00190061609F4CF0160
:104B70000020D1F701970895FB0151915523A9F029
:104B8000BF01DC014D9145174111E1F759F4CD0109
:104B90000190002049F04D9140154111C9F3FB01EE
:104BA0004111EFCF81E090E0019708955058BB2765
:104BB000AA270E94EE250C9468270E945A2738F0F5
:104BC0000E94612720F039F49F3F19F426F40C94D9
:104BD00057270EF4E095E7FB0C945127E92F0E942C
:104BE000792758F3BA17620773078407950720F0EF
:104BF00079F4A6F50C949B270EF4E0950B2EBA2FB2
:104C0000A02D0B01B90190010C01CA01A0011124D2
:104C1000FF27591B99F0593F50F4503E68F11A167E
:104C2000F040A22F232F342F4427585FF3CF46950F
:104C300037952795A795F0405395C9F77EF41F1631
:104C4000BA0B620B730B840BBAF09150A1F0FF0FFB
:104C5000BB1F661F771F881FC2F70EC0BA0F621FE7
:104C6000731F841F48F4879577956795B795F795D7
:104C70009E3F08F0B0CF9395880F08F09927EE0F6C
:104C80009795879508950E942D2708F481E008954F
:104C90000E945C260C9468270E94612758F00E94AD
:104CA0005A2740F029F45F3F29F00C945127511105
:104CB0000C949C270C9457270E94792768F399231A
:104CC000B1F3552391F3951B550BBB27AA27621708
:104CD0007307840738F09F5F5F4F220F331F441F15
:104CE000AA1FA9F335D00E2E3AF0E0E832D0915049
:104CF0005040E695001CCAF72BD0FE2F29D0660F36
:104D0000771F881FBB1F261737074807AB07B0E878
:104D100009F0BB0B802DBF01FF2793585F4F3AF07E
:104D20009E3F510578F00C9451270C949C275F3FCF
:104D3000E4F3983ED4F3869577956795B795F79504
:104D40009F5FC9F7880F911D9695879597F90895EC
:104D5000E1E0660F771F881FBB1F62177307840788
:104D6000BA0720F0621B730B840BBA0BEE1F88F797
:104D7000E09508950E94C1266894B1110C949C2777
:104D800008950E94812788F09F5798F0B92F99279E
:104D9000B751B0F0E1F0660F771F881F991F1AF026
:104DA000BA95C9F714C0B13091F00E949B27B1E0C9
:104DB00008950C949B27672F782F8827B85F39F0C8
:104DC000B93FCCF3869577956795B395D9F73EF4BF
:104DD00090958095709561957F4F8F4F9F4F089567
:104DE000E89409C097FB3EF4909580957095619585
:104DF0007F4F8F4F9F4F9923A9F0F92F96E9BB273B
:104E00009395F695879577956795B795F111F8CFB6
:104E1000FAF4BB0F11F460FF1BC06F5F7F4F8F4F21
:104E20009F4F16C0882311F096E911C0772321F017
:104E30009EE8872F762F05C0662371F096E8862FAF
:104E400070E060E02AF09A95660F771F881FDAF706
:104E5000880F9695879597F90895990F0008550F33
:104E6000AA0BE0E8FEEF16161706E807F907C0F0F0
:104E700012161306E407F50798F0621B730B840BF8
:104E8000950B39F40A2661F0232B242B252B21F4D2
:104E900008950A2609F4A140A6958FEF811D811D72
:104EA000089597F99F6780E870E060E008959FEFAC
:104EB00080EC089500240A941616170618060906B1
:104EC000089500240A941216130614060506089580
:104ED000092E0394000C11F4882352F0BB0F40F408
:104EE000BF2B11F460FF04C06F5F7F4F8F4F9F4F48
:104EF000089557FD9058440F551F59F05F3F71F0CA
:104F00004795880F97FB991F61F09F3F79F0879530
:104F10000895121613061406551FF2CF4695F1DFB9
:104F200008C0161617061806991FF1CF8695710549
:104F3000610508940895E894BB2766277727CB017D
:104F400097F908950E94B5270C9468270E945A2764
:104F500038F00E94612720F0952311F00C9451271E
:104F60000C94572711240C949C270E94792770F3E6
:104F7000959FC1F3950F50E0551F629FF001729FFE
:104F8000BB27F00DB11D639FAA27F00DB11DAA1F0D
:104F9000649F6627B00DA11D661F829F2227B00D5A
:104FA000A11D621F739FB00DA11D621F839FA00DE5
:104FB000611D221F749F3327A00D611D231F849F35
:104FC000600D211D822F762F6A2F11249F5750408C
:104FD0009AF0F1F088234AF0EE0FFF1FBB1F661F07
:104FE000771F881F91505040A9F79E3F510580F0D0
:104FF0000C9451270C949C275F3FE4F3983ED4F324
:10500000869577956795B795F795E7959F5FC1F773
:10501000FE2B880F911D9695879597F9089597FB1C
:10502000072E16F4009407D077FD09D00E946D2852
:1050300007FC05D03EF4909581959F4F089570959B
:1050400061957F4F0895A1E21A2EAA1BBB1BFD019B
:105050000DC0AA1FBB1FEE1FFF1FA217B307E40757
:10506000F50720F0A21BB30BE40BF50B661F771FAF
:10507000881F991F1A9469F760957095809590958F
:105080009B01AC01BD01CF010895052E97FB1EF4D5
:1050900000940E945C2857FD07D00E94232807FC3B
:1050A00003D04EF40C945C28509540953095219592
:1050B0003F4F4F4F5F4F0895909580957095619544
:1050C0007F4F8F4F9F4F0895EE0FFF1F0024001C4E
:1050D0000BBE0790F691E02D0994AA1BBB1B51E172
:1050E00007C0AA1FBB1FA617B70710F0A61BB70B58
:1050F000881F991F5A95A9F780959095BC01CD01FD
:10510000089511E0CBEDD1E004C0FE010E946428B7
:0C5110002196CC3DD107C9F7F894FFCFE1
:10511C0000001E262000000000006F100802F8108E
:10512C00BC10DC10B1105365747570207472616E14
:10513C00736D6974206861726477617265003E00FA
:10514C0023004F564552464C4F57212000434143B4
:10515C0048452046554C4C007A2D7A2D7A2D7A2DC7
:10516C007A2D612D612D612D612D612D782D7800A9
:10517C004944583D003B5357495443483D003B413B
:10518C004354494F4E3D003B6672616D653D006670
:10519C006B6B6B6B6B6B6B6B6B6B6B6B6B6B6B6B53
:1051AC0069696969003B4B45593D003B464952537F
:1051BC00543D0020202020417572696F6C3A0069C3
:1051CC0069696969696969757575757474747474DC
:1051DC00747474747474746363636363636363007F
:1051EC003B54454D503D003B554E4B4E4F574E3D5D
:1051FC00003B434845434B53554D3D002D2D2D2D24
:10520C002D2D2D2D2D2D2D74742D2D2D2D2D2D2D34
:10521C002D2D2D2D2D2D2D2D2D2D2D2D2D2D2D00DF
:10522C002D2D696969696969626263637474747448
:10523C007474747474747474656565656568686891
:10524C00686868680069696969696969696969692F
:10525C0069696969696969696969696969696969B2
:10526C0069696969696969696969696969696969A2
:10527C0069696969696969696931306F6F757575D3
:10528C0075757575750069696969696969696969AF
:10529C006969696969696969696969696969696972
:1052AC006969696969696969696969696969696962
:1052BC006969696969696969696930316F6F75759F
:1052CC007575757575750069696969696969696963
:1052DC006969696969696969696969696969696932
:1052EC006969696969696969696969696969696922
:1052FC00696969696969696969696967676F6F75FE
:10530C007575757575757500202020204E65776B49
:10531C00616B753A002047524F55503D0020535455
:10532C004154453D0020554E49543D002D2D2D2D09
:10533C002D2D2D2D2D2D2D2D2D2D2D2D2D2D2D2D91
:10534C002D2D2D2D2D2D2D2D2D2D2D2D2D2D2D2D81
:10535C002D2D2D2D2D2D2D2D2D2D2D2D2D2D2D2D71
:10536C0031312D2D2D2D2D2D2D2D2D2D2D2D2D2D59
:10537C002D2D2D2D002D2D2D2D2D2D2D2D696969CA
:10538C006969696969696969697474747474747434
:10539C007474747474686868686868686877777718
:1053AC00777777777767676767676767676D6D6D1F
:1053BC006D727272727373737373737373626262EE
:1053CC00626464646463636363636363630053680C
:1053DC006F7720726164696F730034333341002B33
:1053EC000038363841004952333800706F6E670010
:1053FC003230313730393135004B6E6F776E206378
:10540C006F6D6D616E6473003D3D3D3D3D3D3D3DB9
:10541C003D3D3D3D3D3D00202D2000616C6C004923
:10542C004E505554535452494E473A004D554C54D6
:10543C0049434F4D4D414E4400436F6D6D616E6459
:10544C00206E6F7420666F756E642E0031333133AD
:10545C0000333133310031333331003331313300E8
:10546C003030303230323230323230320068656CAB
:10547C00700053686F772068656C7020636F6D6D7A
:10548C00616E64730076657273696F6E0053686F3A
:10549C00772056657273696F6E0073686F777261EF
:1054AC0064696F730053686F7720636F6E6669670A
:1054BC007572656420726164696F73007278656ED1
:1054CC0061626C6500456E61626C65206368616E3B
:1054DC006E656C206E00727864697361626C650035
:1054EC0044697361626C65206368616E6E656C20E3
:1054FC006E0074786672616D65004652414D4520B0
:10550C0053454E4420544553540070696E67004B0C
:10551C0065657020616C69766520746573740053E1
:10552C00656E64204652414D45206F6E2072616459
:10553C00696F2000504552494F443A200044415471
:10554C00413A2000636F756E743A20007265706585
:10555C0061743A2000323000317600545249545371
:10556C003A00494D50554C534652414D453A000076
:00000001FF
